:020000040800F2
:1000000000400020B943000821160008231600080C
:1000100000000000000000000000000000000000E0
:10002000000000000000000000000000AD420008D9
:100030000000000000000000514300089543000844
:10004000094400080944000809440008094400085C
:10005000094400080944000809440008094400084C
:10006000094400080944000809440008094400083C
:10007000094400080944000809440008094400082C
:100080000944000825160008F50A0008094400087C
:10009000094400080944000809440008094400080C
:1000A00009440008094400080944000809440008FC
:1000B00009440008F5140008094400080944000830
:1000C0000023C25C0133002AFBD1581E7047000098
:1000D000002243088B4274D303098B425FD3030A87
:1000E0008B4244D3030B8B4228D3030C8B420DD39A
:1000F000FF22090212BA030C8B4202D31212090228
:1001000065D0030B8B4219D300E0090AC30B8B4265
:1001100001D3CB03C01A5241830B8B4201D38B0313
:10012000C01A5241430B8B4201D34B03C01A5241B8
:10013000030B8B4201D30B03C01A5241C30A8B42FB
:1001400001D3CB02C01A5241830A8B4201D38B02E6
:10015000C01A5241430A8B4201D34B02C01A52418A
:10016000030A8B4201D30B02C01A5241CDD2C309FC
:100170008B4201D3CB01C01A524183098B4201D378
:100180008B01C01A524143098B4201D34B01C01A63
:10019000524103098B4201D30B01C01A5241C308DB
:1001A0008B4201D3CB00C01A524183088B4201D34A
:1001B0008B00C01A524143088B4201D34B00C01A36
:1001C0005241411A00D20146524110467047FFE7A2
:1001D00001B5002000F0F0F802BDC0460029F7D0BC
:1001E00076E7704703460B437FD4002243088B42D7
:1001F00074D303098B425FD3030A8B4244D3030BAE
:100200008B4228D3030C8B420DD3FF22090212BA72
:10021000030C8B4202D31212090265D0030B8B42EE
:1002200019D300E0090AC30B8B4201D3CB03C01AD8
:100230005241830B8B4201D38B03C01A5241430BB3
:100240008B4201D34B03C01A5241030B8B4201D3A3
:100250000B03C01A5241C30A8B4201D3CB02C01A0E
:100260005241830A8B4201D38B02C01A5241430A86
:100270008B4201D34B02C01A5241030A8B4201D375
:100280000B02C01A5241CDD2C3098B4201D3CB011C
:10029000C01A524183098B4201D38B01C01A5241CB
:1002A00043098B4201D34B01C01A524103098B42CF
:1002B00001D30B01C01A5241C3088B4201D3CB00BA
:1002C000C01A524183088B4201D38B00C01A52419D
:1002D00043088B4201D34B00C01A5241411A00D24D
:1002E00001465241104670475DE0CA0F00D04942B6
:1002F000031000D34042534000229C4603098B4226
:100300002DD3030A8B4212D3FC22890112BA030AAD
:100310008B420CD3890192118B4208D3890192112F
:100320008B4204D389013AD0921100E08909C309B4
:100330008B4201D3CB01C01A524183098B4201D3B6
:100340008B01C01A524143098B4201D34B01C01AA1
:10035000524103098B4201D30B01C01A5241C30819
:100360008B4201D3CB00C01A524183088B4201D388
:100370008B00C01A5241D9D243088B4201D34B00A3
:10038000C01A5241411A00D20146634652415B10E5
:10039000104601D34042002B00D5494270476346C6
:1003A0005B1000D3404201B5002000F005F802BD0B
:1003B0000029F8D016E770477047C0460448054B3F
:1003C00010B5834203D0044B002B00D0984710BDDA
:1003D000100000201000002000000000064807491F
:1003E000091A8B10C90FC91810B5491003D0044B56
:1003F000002B00D0984710BD1000002010000020F6
:100400000000000010B5074C2378002B09D1FFF73E
:10041000D5FF054B002B02D0044800E000BF0123AC
:10042000237010BD1000002000000000B044000840
:10043000054B10B5002B03D00449054800E000BF70
:10044000FFF7CCFF10BDC0460000000014000020E4
:10045000B0440008F0B589B01422002103A803F0CD
:10046000D4FF204B5A69802109030A435A615A6913
:100470000A400092009A5A69802189020A435A610F
:100480005A690A400192019A5A698021C9020A43B5
:100490005A615B690B400293029B134C134D00227F
:1004A0002100280001F084FE039401270497002412
:1004B0000594069403A9280001F0AEFD06230393DA
:1004C000902676030496059403A9280001F0A4FD64
:1004D000039704960594902003A9C00501F09CFDA4
:1004E00009B0F0BD00100240E10300000008004820
:1004F00070B524E02B4B1B88013A13402A4A138025
:100500002A4B8022D2021A60C42080001958284A3F
:100510001140802212040A431A50224B00221A80F2
:100520000121244C2068494203F0E2FC224B0022C6
:100530001A70206803F01EFD204800F043FD0125DD
:100540006D421F4B1868290003F0D2FC1D4800F0D3
:1005500039FD184C2068290003F0CAFC164B012213
:100560001A70206803F006FD0E4B1B88F022120162
:10057000134080229200934208D00132FF3293420E
:1005800008D0802252009342C7D1B3E7064B002225
:100590001A80C2E7034B1B88FF221340024A1380D4
:1005A000BBE7C0463A0000203800002000E100E030
:1005B000FFFF00FFC8000020C4000020FC4400082A
:1005C000CC000020DC44000810B522E02B4B18685A
:1005D00003F0D0FC0121294B1868494203F088FC44
:1005E000274B1B78002B43D1244B186803F0C2FC27
:1005F000244B18680B2100F013FC234B984208D0C1
:10060000224B1880224800F0DDFC224B186803F0D2
:10061000B1FC0121204B1868494203F069FC1F48D6
:1006200000F0D0FC174B186800F0B6FB0028F0D1A2
:100630000121124B1868494203F05AFC184B1B78F1
:10064000002BC3D10D4B186803F094FC0D4B1868B8
:100650000A2100F0E5FB0C4B9842BBD0114B1880EF
:10066000114800F0AFFC114B186803F083FCB1E7B0
:10067000024B186803F07EFCCBE7C046C8000020A0
:10068000C4000020BC000020FFFF00003A00002052
:1006900044450008CC000020D40000201845000884
:1006A000C50000203C00002030450008D00000209C
:1006B00070B58CB000242F236B441C702E236B4428
:1006C0001C702D236B441C7006A9594B0A0061CB8A
:1006D00061C203CB03C205941022002101A803F0DC
:1006E00094FE009454E005AA0021D1540133032B59
:1006F000F9DD2E236B441B78DAB2032B6DD0032A6D
:100700000FD8012A27D0022A30D12F236B441B781F
:10071000013B9B0006AA9958464A53698B43536193
:1007200024E0042A22D12F236B441B78052B60D0B0
:100730002F236B441B78013B05AA0121D1543E4B6A
:100740001B880F22134064255D4329003B48FFF7B7
:1007500049FD04B268E02F236B441B78013B9B00EA
:1007600006AA9958334A53690B435361324B00220E
:100770001A80334800F026FC0121324C206849429F
:1007800003F0B6FB304B00221A70206803F0F2FB36
:1007900001256D422D4B1868290003F0A9FB2C4858
:1007A00000F010FC274C2068290003F0A1FB264B29
:1007B00001221A70206803F0DDFB1F490B881B0A19
:1007C0000F2213402F20684403700B881B091A4026
:1007D0002E236B441A70002389E72F236B441B7868
:1007E000013B9B0006AA9958124A53694B4053613A
:1007F000BCE705AB01221A705A709A70DA709EE756
:100800000133032B0BDC05AAD25C002AF8D09A0036
:1008100006A9505807494A6942404A61F0E7280052
:1008200003F0DAFA013C24B2002C9FDD0023E8E754
:10083000C8440008000800483C00002010270000C1
:1008400078450008C8000020C5000020D000002026
:100850005C4500089023DB051968802292000A435A
:100860001A601A681C490A401A601A6A1B490A4031
:100870001A62196A8022D2020A431A621A68184957
:100880000A401A601968A02252010A431A605A6984
:1008900020210A435A615A6920318A435A61114A18
:1008A000D16980235B000B43D3610F4B00221A6098
:1008B0009A611A629969682001439961186A012155
:1008C0000843186299629620C000D8625A631A6879
:1008D0000A431A607047C046FFFEFFFFFFFFF0FFAC
:1008E000FFC3FFFF001002400020004010B5642845
:1008F00006D8044CE36A58436421FFF7E9FB6063C0
:1009000010BDC046002000401F4A51698023DB0211
:100910000B4353611D4B19681D480140196018684D
:10092000A021090101431960186A88214903014384
:100930001962D36902210B43D361164B00219961DF
:1009400019629960196098690221FF310143996128
:1009500099680320014399600F49D9620F49596290
:100960001868012108431860D36920200343D3612C
:100970000B4B58229A620B4ADA62DA680A43DA6051
:100980001A680A431A6070470010024000040048C9
:10099000FFFAFFFF00040040FFFF0000FF7F0000A0
:1009A00000140040307500009022D20513680C211D
:1009B0000B431360154A916980239B000B4393619D
:1009C000134B0021D960D868802292010243DA607B
:1009D0009A6A022002439A629960996880221206FC
:1009E0000A439A600A4B9B68002BFBDB084A93681A
:1009F00001210B439360064B1B68DB07FBD5044AC0
:100A0000936804210B4393607047C0460010024076
:100A10000024014010B5FFF71DFFFFF775FFFFF73A
:100A2000C3FF10BD10B52A4B1B881BB2294A118881
:100A300009B2C81703220240521892109B1A1BB227
:100A4000254A1380254B1B78108800B2244A118850
:100A500009B243435B181BB2138013881BB2002BEF
:100A600009DB1F4B1B881BB2C8221201934205DD14
:100A70001B4B1A8002E0130000221A80194B1B78CE
:100A8000154A118809B2164A128812B24B439B18B4
:100A90001BB25A11002B08DB0D4B1C8824B2002C12
:100AA00004D0642A12DC140000E00024E4B2200028
:100AB000FFF71CFF0C4B1C700C4B1B685B0704D52D
:100AC0000A4B1B6C5BB20A4A137010BD6424EDE73D
:100AD00038000020420000203E00002000000020DE
:100AE00046000020010000204400002000240140B6
:100AF0004000002010B5094A536A09498C466344F6
:100B00001BB208490B80084B5362FFF78BFF074A63
:100B1000136901218B43136110BDC04600040040DE
:100B20000180FFFF42000020FF7F00000014004012
:100B3000294A516980231B030B435361274B1968D2
:100B4000802252010A431A601A6825490A401A6035
:100B500019688022D2010A431A601A6821490A40A2
:100B60001A601968802252020A431A601A681E49E4
:100B70000A401A6019688022D2020A431A601A6871
:100B80001A490A401A609A6819490A409A609A6894
:100B900018490A409A609A6817490A409A609A6808
:100BA00016490A409A60DA6815490A40DA60DA683C
:100BB00014490A40DA605A6940218A435A615A69E5
:100BC00040318A435A615A690F490A405A615A6949
:100BD0000E490A405A617047001002400008004860
:100BE000FFDFFFFFFF7FFFFFFFFFFDFFFFFFF7FFBF
:100BF000FFCFFFFFFF3FFFFFFFFFFCFFFFFFF3FF04
:100C0000FFFFF0FFFF0FFFFFFFFEFFFFFFFDFFFFF6
:100C100010B50268034B9A4200D010BD01F0EAF90A
:100C2000FBE7C0460010004072B6FEE700B599B081
:100C3000342200210BA803F0E8FB1022002107A8B2
:100C400003F0E3FB1C220021684603F0DEFB2223B5
:100C50000B93213B0E9313930F330F930E3B14937F
:100C600080231B02159380235B0316930BA800F0CF
:100C70004FFD002818D107230793053B0893002355
:100C800009930A93012107A801F020F800280DD14B
:100C900080239B02009300230693684601F0EAF844
:100CA000002805D119B000BDFFF7BEFFFFF7BCFF5C
:100CB000FFF7BAFF10B501F08DF9FFF7B7FFFFF7A7
:100CC000C9FB00F0A3FBFFF733FFFFF7A3FE02F021
:100CD000C1FF134A1348002102F0FEFF124B1860B7
:100CE000124A1348002102F0F7FF124B1860124A13
:100CF0001248002102F0F0FF114B1860114A12480F
:100D0000002102F0E9FF114B186000F04DFC0028B3
:100D100002D102F0BDFFFEE70D4800F053F9F8E7FD
:100D200080470008C9050008340000205C4700081F
:100D3000B10600083000002038470008F104000820
:100D40002C000020A447000845130008C000002024
:100D50009045000870B505000C000022012101201B
:100D600003F058F80B4B1860002812D0280060439D
:100D70000C3003F0ABF900280BD00300183383606C
:100D80006DB2857000230370FF22427064B2C4709C
:100D9000037170BD4800002070B504000121074DAB
:100DA0002868494203F0A4F8247963425C41E4B224
:100DB000286803F0DFF8200070BDC046480000201E
:100DC00070B504000D000121144B1868494203F06E
:100DD0008FF8227952B2A3785BB29A4216D060782B
:100DE00040B20130A17849B2FFF7E2FA4BB263702A
:100DF000A2684B00D3181D80237901335BB22371A5
:100E0000064B186803F0B6F8002070BD034B186855
:100E100003F0B0F801204042F7E7C0464800002048
:100E2000F8B5CE46474680B50400884601213E4BC2
:100E30001868494203F05CF8207840B283B29946C2
:100E40002379002B01D0002708E0374B186803F006
:100E500091F8364B984661E001377FB223795BB257
:100E6000BB4218DDA5684B46DE19A17849B23000B7
:100E7000FFF79EFA4B00EB181B881B0B4345EBD189
:100E8000A17849B23000FFF793FA49006D182B881A
:100E90009BB2984601E0254B9846244B98450AD0D2
:100EA0004B46D819A17849B2FFF782FA8DB226795C
:100EB000F61B76B21BE01C4B186803F05BF82DE0C4
:100EC0006F1CA17849B23800FFF772FAA2680B04D0
:100ED000DB0BD3186D0052191B889BB21380A178CD
:100EE00049B23800FFF764FA8DB2013E76B2002EA7
:100EF000E6DC23795BB2013B5BB22371607840B2E0
:100F00000138A3785BB2C018A17849B2FFF750FA54
:100F100049B26170044B186803F02CF84046C0BC1D
:100F2000B946B046F8BDC04648000020FFFF0000AB
:100F300070B50500002400E001342800FFF7C0F878
:100F4000A04208D92A5D531EDBB22E2B2DD9392A97
:100F5000F2D9FF2013E0A978002911D02A78303A7D
:100F6000D2B26B78303BDBB23039CCB26420504324
:100F70009A009B185B00C018C0B20019C0B270BDC7
:100F80006878002806D02B78303BDBB23038C4B20A
:100F90000A00EBE72A78002A04D0303AD4B20200E3
:100FA0000300E3E714001300E0E7FF20E7E7000099
:100FB000034BDB691B06FBD5014B18857047C04608
:100FC0000048004010B5040002E0FFF7F1FF0134D3
:100FD00020780028F9D10A30FFF7EAFF0D20FFF74B
:100FE000E7FF10BD10B586B000230AE001001941EB
:100FF00001220A400F21C91A303201AC6254013378
:10100000DBB20F2BF2D901A80A230374FFF7DAFF32
:1010100006B010BD30B583B0B14A13780133DBB2EE
:101020006946CB7100231370AE4A1370AE4A137039
:101030000CE0AD4A13780133DBB21370A94B0022E8
:101040001A70A74A13780133DBB21370A44B1A78D5
:10105000D2B26B4607331B78DBB29A421CD2A04B4C
:101060001B78DBB2A14AD35C202BE2D09C4B1A78D0
:10107000D2B29D4B1B789B490878C0B29B4CA45CB4
:10108000E4B29B4A9D005B199B00D21814540B7864
:101090000133DBB20B70D4E79649954803F0BEF9F3
:1010A000002800D0B7E0944A138894490B439BB2C0
:1010B00013809349934803F0B1F9002825D18E4A53
:1010C0001388802149000B43138000248E498F48E8
:1010D00003F0A4F9002852D1874A138810210B434A
:1010E0009BB21380824B3C229B5CD8B2002B01D078
:1010F000002001240F2800D983E07F4A138803438E
:101100009BB21380200003B030BD81497D4803F0BD
:1011100085F9002807D1784A1388802189000B437C
:1011200013800024D2E77B49764803F077F9002842
:1011300007D1714A1388C02189000B431380002412
:10114000C4E775496F4803F069F9002807D16A4A76
:1011500013888021C9000B4313800024B6E76F4930
:10116000684803F05BF9002807D1634A1388A0217F
:10117000C9000B4313800024A8E70124A6E76849AF
:10118000624803F04BF900280ED15B4A13882021F6
:101190000B439BB21380564B3C229B5CD8B2002B76
:1011A000A8D000200124A5E75E49584803F036F98D
:1011B00000280FD1504A138830210B439BB2138073
:1011C0004B4B3C229B5CD8B2002B00D192E7002015
:1011D00001248FE754494D4803F020F900280DD130
:1011E000454A138840210B439BB213804F48FFF7B9
:1011F0009FFEFF2800D07DE7012483E70020012423
:1012000078E74B48FFF7DEFE3B4A13880F210B437C
:101210009BB2138076E74749354803F0FFF8002872
:101220005AD1354A138844490B439BB2138036493F
:10123000344803F0F3F8002819D12F4A138880218D
:1012400049000B4313803148FFF772FE0024284BFE
:101250003C229B5C002B00D00124FF283ED0642858
:1012600030D8254A138803439BB213804AE72C49A0
:10127000244803F0D3F800280DD11F4A1388802199
:1012800089000B4313801A4B28229B5CDCB2002B95
:1012900012D12000DBE729491A4803F0BFF80028E3
:1012A0000DD1154A1388C02189000B4313801748BC
:1012B000FFF73EFE0024CAE700200124C7E7002014
:1012C0000124C4E71E48FFF77DFE0B4A1388642102
:1012D0000B439BB2138015E7012413E7012411E7A8
:1012E000B6000020B4000020B5000020A0000020BF
:1012F00050000020D04500084C00002000A0FFFF57
:10130000D445000864000020F4450008780000205F
:10131000D8450008E0450008E8450008F045000809
:10132000F8450008FC450008044600088C00002031
:101330000C4600082C46000800B0FFFF34460008A9
:101340003C46000810B520E02448FFF73BFE05E0CE
:101350002348FFF737FE2348FFF734FE224B0022D5
:101360001A700DE01F4B00219954204B99549B1883
:1013700019751800283001703C3319700132D2B24F
:10138000132AEFD91A4B00221A800121194B186831
:10139000494202F0ADFD1848FFF714FEFFF73AFE90
:1013A0000028D5D1124B198889B2144B1868FFF761
:1013B00007FD0130C8D01248FFF704FE0948FFF7C7
:1013C00001FE0B4B188880B2FFF70CFE0D4B18681E
:1013D00002F0D0FD0C48FFF7F5FDBFE7A44600087A
:1013E000D0460008A0000020B600002050000020D9
:1013F0004C000020B80000205C460008BC00002023
:1014000074460008D40000209446000810B52F4A06
:10141000516980231B030B4353612D4B18688021B6
:1014200089000143196019682A4801401960186849
:10143000802109010143196019682748014019609A
:10144000186A8021490201431962186A8021490300
:1014500001431962D1698023DB020B43D36100F0A1
:10146000D7FCE1214902FEF733FE1C4CE060236803
:101470000822134323602368043A1343236023683C
:10148000033A134323601648FFF79CFD236820228C
:1014900013432360134B802292051A60C7208000FB
:1014A0001958114A1140C02212020A431A50002250
:1014B0000021012002F0AEFC0C4B18600221052037
:1014C000FFF748FC0A4B186010BDC04600100240F0
:1014D00000080048FFFEFFFFFFFBFFFF0048004041
:1014E000E846000800E100E0FF00FFFFB800002030
:1014F000BC00002010B582B0264BDB699B06FBD5F3
:10150000244B9B8CDBB26A46D41DD371D079C0B218
:10151000FFF74EFD2378082B1FD023787F2B1CD09C
:101520006B4607331B780D2B2FD01B4A1378DBB289
:10153000694607310978C9B21848C1541378013394
:10154000DBB213701378142B15D11548FFF73AFD51
:10155000114B00221A70002314E00F4B1B78002B54
:1015600009D00D4A1378013BDBB213701378DBB25C
:101570000A4A0021D15402B010BD084A0021D154BA
:101580000133DBB2132BF8D9F5E7064B186802F0EC
:10159000F1FCF0E700480040B6000020A000002069
:1015A000F8460008B800002010B5002200210320F2
:1015B00002F030FC164B186000281CD000220021DD
:1015C000012002F027FC134B1860002816D00022DF
:1015D0000021012002F01EFC0F4B1860002810D0E3
:1015E00000220121012002F015FC0C4B186000289C
:1015F0000AD0002010BD01204042FBE701204042FC
:10160000F8E701204042F5E701204042F2E7C046FA
:10161000D4000020D0000020CC000020C800002012
:10162000FEE7FEE710B5024800F044FE10BDC046DC
:10163000D800002000B583B00C4B996901221143FA
:10164000996199690A400092009ADA6980214905F6
:101650000A43DA61DB690B400193019B02200022FF
:101660000321404200F0DAFD03B000BD001002404B
:1016700030B587B00500204AD16910231943D161E4
:10168000D26913400093009B01A902A800F0D6FB89
:10169000059B002B17D100F0C1FB1849FEF718FD80
:1016A000421E174B174918001960174BC360426060
:1016B000002303618360836100F0FCFE041E06D0FA
:1016C000200007B030BD00F0A9FB4000E5E70C4862
:1016D00000F0B6FD041EF3D1112000F0A3FD032D90
:1016E00001D90124ECE700222900112000F096FD29
:1016F000064B1D60E4E7C0460010024040420F0068
:10170000D800002000100040E70300000400002083
:1017100070B582B0041E00D17FE20368DB072BD5D1
:10172000B34B5A680C231340042B1DD0B04B5A689E
:101730000C231340082B0ED06368012B41D0002BE3
:1017400056D1AB4B1A68AB490A401A601A68AA49CD
:101750000A401A603BE0A64B5B68C022520213406D
:10176000802252029342E7D1A14B1B689B0303D511
:101770006368002B00D153E223689B0777D59C4B0D
:101780005B680C221A4262D0994B5A680C231340B2
:10179000082B53D0E368002B00D18AE0944A1368E9
:1017A00001210B43136000F031FC0500904B1B68D6
:1017B0009B0775D400F02AFC401B0228F6D90320B1
:1017C0002CE28B4A116880235B020B431360636831
:1017D000002B25D000F01AFC0500854B1B689B03ED
:1017E000CAD400F013FC401B6428F6D9032015E28C
:1017F000052B09D07E4B1A687E490A401A601A6888
:101800007D490A401A60E2E7794B19688022D202CA
:101810000A431A601968802252020A431A60D6E706
:1018200000F0F4FB0500724B1B689B03A4D500F08D
:10183000EDFB401B6428F6D90320EFE16C4B5B689D
:10184000C02252021340802212029342A2D1684B5E
:101850001B689B0703D5E368012B00D0E2E16449D4
:101860000B68F82293432269D20013430B6023686C
:101870001B0744D5E369002B2ED05D4A536A012132
:101880000B43536200F0C2FB0500594B5B6A9B0798
:1018900035D400F0BBFB401B0228F6D90320BDE184
:1018A00053490B68F82293432269D20013430B601B
:1018B000DDE74F4A136801218B43136000F0A6FB5C
:1018C00005004B4B1B689B07D1D500F09FFB401BCD
:1018D0000228F6D90320A1E1454A536A01218B432E
:1018E000536200F093FB0500414B5B6A9B0706D5F2
:1018F00000F08CFB401B0228F6D903208EE1236800
:101900005B0700D480E03A4BDB69DB001DD4384B29
:10191000DA69802149050A43DA61DB690B400193EA
:10192000019B0125354B1B68DB0510D5A368012BF6
:1019300021D0002B36D12E4B1A6A01218A431A621C
:101940001A6A03318A431A621AE00025EAE72B4A31
:10195000116880235B000B43136000F057FB060007
:10196000264B1B68DB05E1D400F050FB801B64288C
:10197000F6D9032052E11E4A136A01210B43136278
:10198000A368002B24D000F041FB0600184B1B6A13
:101990009B0737D400F03AFB801B194B9842F5D9CE
:1019A00003203BE1052B09D0114B1A6A01218A4320
:1019B0001A621A6A03318A431A62E1E70C4B1A6A07
:1019C00004210A431A621A6A03390A431A62D7E7E2
:1019D00000F01CFB0600064B1B6A9B0712D500F0AB
:1019E00015FB801B064B9842F5D9032016E1C04633
:1019F00000100240FFFFFEFFFFFFFBFF00700040F2
:101A000088130000012D39D02368DB0610D56369E7
:101A1000012B39D0053357D1894A536B04218B43AD
:101A20005363536BF4318B43A169C9000B43536378
:101A300023689B066ED5824B5A680C2313400C2BEF
:101A400060D07F4B5A680C231340082B53D0236A75
:101A5000002B7ED07A4A516B80235B020B43536389
:101A600000F0D4FA0500764B5B6B9B0352D400F078
:101A7000CDFA401B0228F6D90320CFE0704AD36983
:101A800070490B40D361BFE76D4B5A6B04210A4389
:101A90005A635A6B03390A435A6300F0B7FA0500D8
:101AA000674B5B6B9B0706D400F0B0FA401B022823
:101AB000F6D90320B2E062494B6BF8229343A26946
:101AC000D20013434B63B3E75D4B5A6B04210A43C7
:101AD0005A635A6B03398A435A6300F097FA050038
:101AE000574B5B6B9B07A3D500F090FA401B022875
:101AF000F6D9032092E0524B5B68C0225202134099
:101B00009342A4D14E4B5B6B9B0303D5236A012BFD
:101B100000D089E0636A002B00D187E0484A516811
:101B20000C220A40082A60D0022B25D0444A1368B0
:101B300045490B40136000F069FA0400404B1B68F4
:101B40009B0150D500F062FA001B0228F6D9032051
:101B500064E03B4A536B3D490B40536300F056FA37
:101B60000500374B5B6B9B03D4D500F04FFA401B4D
:101B70000228F6D9032051E0314A136832490B405C
:101B8000136000F043FA05002D4B1B689B0106D53E
:101B900000F03CFA401B0228F6D903203EE0284B17
:101BA000DA6A0F218A43216B0A43DA625A682849AC
:101BB0000A40E16AA06A01430A435A601968802218
:101BC00052040A431A6000F021FA04001C4B1B68FF
:101BD0009B0106D400F01AFA001B0228F6D9032054
:101BE0001CE000201AE0002018E0012B20D0144B4C
:101BF0005A68D86AC0235B021340A16A8B4219D18C
:101C00000F230340216B8B4216D1F0239B031A4014
:101C1000E36A9A4212D1002000E0012002B070BDB8
:101C20000120FBE70120F9E70120F7E70020F5E7B5
:101C30000120F3E70120F1E70120EFE70120EDE7C4
:101C400000100240FFFFFFEFFFFFFFFEFFFFFEFF60
:101C5000FF7FC2FF10B5184B5A680C231340082BA6
:101C600003D00C2B25D1154810BD910C0F23194022
:101C70001348445C1049C96A0B401249C95CC0232F
:101C80005B021A4080235B029A4208D0C0235B02A9
:101C90009A4209D00C48FEF71BFA6043E4E70A4871
:101CA000FEF716FA6043DFE70448FEF711FA6043D7
:101CB000DAE70548D8E7C04600100240006CDC02B5
:101CC000D8470008C847000800127A0070B5040021
:101CD0000D00002800D186E0474B1A68012313400D
:101CE0008B420AD244490B68012293432B430B6079
:101CF0000B681A40AA4200D077E023689A070ED5F5
:101D00005B0705D53D4A5168E023DB000B43536078
:101D10003A4A5368F0218B43A1680B435360236810
:101D2000DB0735D56368012B09D0022B24D0032BA8
:101D300028D0324A1268920705D4012052E02F4A77
:101D40001268920353D52D494A68032082431343F6
:101D50004B6000F05BF90600284B5B680C221A40D0
:101D600063689B009A4213D000F050F9801B244B0B
:101D70009842F1D9032035E0204A12689201E2D45A
:101D800001202FE01D4A526B9203DCD4012029E090
:101D9000194B1A6801231340AB4209D916490B6845
:101DA000012293432B430B600B681A40AA4220D1B7
:101DB00023685B0706D5114A536812490B40E16856
:101DC0000B435360FFF746FF0C4B5A6812090F2371
:101DD00013400D4AD35CD8400C4B18600320FFF72A
:101DE00047FC002070BD0120FCE70120FAE701203C
:101DF000F8E70120F6E7C04600200240001002404C
:101E000088130000FFF8FFFFF047000808000020DB
:101E1000014B18687047C0460800002010B5FFF756
:101E2000F7FF044B5A68120A07231340024AD35C97
:101E3000D84010BD00100240E847000810B5072345
:101E400003600A4B5C680322224042605C68F02217
:101E5000224082605B68E022D2001340C360044BE2
:101E60001A68012313400B6010BDC04600100240E9
:101E70000020024070B582B004000368DB0339D54E
:101E80004D4BDB69DB0069D44B4BDA698021490596
:101E90000A43DA61DB690B400193019B0125474B43
:101EA0001B68DB055CD5444B1A6AC0239B001100FC
:101EB00019401A4215D06368C022920013408B4229
:101EC0000FD03D4B1A6A3E4911401E6A80204002E5
:101ED00030431862186A3B4E304018621962D207CC
:101EE00052D4354A136A36490B4061680B4313627A
:101EF000012D58D02368DB0706D52F4A136B032129
:101F00008B43A1680B43136323689B0706D52A4ABA
:101F1000136B2D490B40E1680B43136323689B0649
:101F200006D5254A136B10218B4321690B4313639C
:101F300023689B0306D5204A136B80218B43A1693C
:101F40000B43136323685B0532D51B4A136B402197
:101F50008B4361690B43136300202AE000259EE751
:101F6000164A116880235B000B43136000F04EF8A3
:101F70000600124B1B68DB0595D400F047F8801B68
:101F80006428F6D9032014E000F040F806000A4B5C
:101F90001B6A9B07A5D400F039F8801B0B4B9842B5
:101FA000F5D9032005E0D36909490B40D361A1E7C6
:101FB000002002B070BDC04600100240007000401A
:101FC000FFFCFFFFFFFFFEFFFFFFFCFF8813000089
:101FD000FFFFFFEF10B5064A136810210B43136093
:101FE0000320FFF745FBFFF725FB002010BDC0468F
:101FF00000200240034A1168034B1B785B181360F2
:102000007047C0462001002002000020014B1868E4
:102010007047C04620010020F0B583B0002356E091
:1020200086685F000324BC40A643CC68BC403443B0
:102030008460446894434E683609012232409A40D5
:102040002243426053E0DE080836B60037580532B6
:102050001A4092000F249440A7430C699440220038
:102060003A43325056E0042600E00026A6403400F1
:102070003C4302329200474E9451474A9768EA43E4
:102080003E00AE434C68E40201D53E002E43424C74
:10209000A660E7683E0016404C68A40201D53E00E9
:1020A0002E433D4CE66067683E0016404C68A40332
:1020B00001D53E002E43384C6660266832404C689D
:1020C000E40301D52A003243334C226001330C680B
:1020D0002200DA405BD001229A40250015401442CC
:1020E000F4D04E6803243440013C012C98D94C684C
:1020F00003222240032A08D0C4685E000322B240B3
:1021000094438A68B2402243C2604C680322224052
:10211000022A98D004685E0003221700B740BC432F
:102120004F683A40B240224302604C68C02292029B
:102130001442CBD0194CA66901221643A661A469AA
:1021400022400192019A9A08941CA400114EA759AA
:1021500003241C40A4000F26A640B7439026F60592
:10216000B04282D00E4EB0420BD00E4EB0420AD0DA
:102170000D4EB04209D00D4EB04200D173E7052696
:1021800074E7012672E7022670E703266EE703B0C4
:10219000F0BDC046000001400004014000100240B4
:1021A0000004004800080048000C004800100048E7
:1021B000002A01D0816170478162FCE770B5002878
:1021C00011DB8308134DC0339B005C590322104080
:1021D000C000FC3216008640B44389010A408240A8
:1021E00022435A5170BD0F230340083B9B0806331E
:1021F0009B00094A944663445C6803221040C00077
:10220000FC3215008540AC4389010A4082402243DC
:102210005A60E7E700E100E000ED00E010B5FFF7ED
:10222000CDFF10BD002805DB1F2202400123934093
:10223000014A13607047C04600E100E070470000AB
:102240003D23C35C012B26D13C330222C2540268D9
:10225000D36801210B43D3600368114A93420FD026
:102260008022D20593420BD00E4A934208D00E4AE8
:10227000934205D01A6801210A431A6000200BE03E
:10228000996807220A40062A07D01A6801210A43E2
:102290001A60002000E0012070470020FCE7C046E3
:1022A000002C01400004004000400140704770478E
:1022B0007047704710B50400026813699B070FD57B
:1022C000D3689B070CD503235B4213610433037768
:1022D00003689B699B0763D0FFF7E9FF002323771F
:1022E000226813695B0712D5D3685B070FD50523F6
:1022F0005B4213610733237723689A69C0239B00ED
:102300001A4253D02000FFF7D2FF00232377226820
:1023100013691B0710D5D3681B070DD509235B4232
:1023200013610D3323772368DB699B0745D02000B9
:10233000FFF7BDFF0023237722681369DB0612D560
:10234000D368DB060FD511235B4213611933237762
:102350002368DA69C0239B001A4235D02000FFF7BA
:10236000A6FF0023237722681369DB0702D5D36811
:10237000DB0730D4226813691B0602D5D3681B061D
:1023800030D4226813695B0602D5D3685B0630D46B
:10239000226813699B0602D5D3689B0630D410BD12
:1023A000FFF784FF2000FFF783FF97E72000FFF788
:1023B0007DFF2000FFF77CFFA7E72000FFF776FFF7
:1023C0002000FFF775FFB5E72000FFF76FFF200043
:1023D000FFF76EFFC5E702235B4213612000FEF7A3
:1023E00017FCC7E781235B421361200000F08FF8E0
:1023F000C7E741235B4213612000FFF75AFFC7E79D
:1024000021235B421361200000F080F8C7E7000041
:102410000368214A904206D08022D205904202D021
:102420001E4A904203D1702293434A6813431A4ACA
:10243000904212D08022D20590420ED0174A90428C
:102440000BD0174A904208D0164A904205D0164A3F
:10245000904202D0154A904203D1154A1A40CB68E7
:102460001343802293434A69134303608B68C3621A
:102470000B688362084B984208D00A4B984205D0FB
:10248000094B984202D0094B984201D10B69036372
:10249000012343617047C046002C01400004004006
:1024A000002000400040014000440140004801403D
:1024B000FFFCFFFF70B5041E26D03D23C35C002B3C
:1024C0001CD03D2502236355210001C9FFF7A0FF61
:1024D00001234622A354083AA3540132A3540132E3
:1024E000A3540132A3540132A3540132A354013244
:1024F000A3540132A3546355002070BD3C33002225
:10250000C254FFF79BFEDCE70120F6E770477047F7
:102510007047030008334360012252428260C36067
:102520000361002303607047002303617047436821
:102530004B609A688A605160996008610368013352
:102540000360704730B50D686B1C10D00300083372
:102550001C005B681A68AA42FAD963684B609960EC
:102560008C606160086103680133036030BD0469F9
:10257000F3E70369416882688A60416851605A687C
:10258000824206D0002202611A68013A1A60186875
:10259000704782685A60F5E70300406A002803D05C
:1025A0001B6B1B683820C01A704710B5040001F07F
:1025B000A9FEA26BE36B9A4204D0002401F0AEFEA8
:1025C000200010BD0124F9E710B5040001F09AFEC7
:1025D000A36B002B04D1012401F0A0FE200010BD4C
:1025E0000024F9E770B504001500866B026C002A20
:1025F0000CD10368002B03D000200136A66370BD08
:10260000406801F0BDF800236360F6E7002D0DD1AE
:10261000806801F043FFA368226C9B18A360626886
:1026200093421AD32368A3602800E6E7C06801F04C
:1026300035FFE368226C51429B1AE36022689342A3
:1026400002D263685B18E360022D01D00020D4E75A
:10265000002E04D0013E0020CFE72800CDE7002067
:10266000CBE710B5030008001A6C002A0AD0DC681A
:10267000A418DC6059688C4201D31968D960D96804
:1026800001F00CFF10BD70B5050001F03BFE4523C5
:10269000EC5C64B201E0013C64B2002C0BDD6B6ABF
:1026A000002B08D02800243000F084FF0028F2D04E
:1026B00001F002F8EFE74523FF22EA5401F02EFE75
:1026C00001F020FE4423EC5C64B201E0013C64B202
:1026D000002C0BDD2B69002B08D02800103000F0F7
:1026E00069FF0028F2D000F0E7FFEFE74423FF2264
:1026F000EA5401F013FE70BD70B504000D0000280F
:102700001DD001F0FFFD2268E36B206C01005943EE
:10271000511861600021A163A260013B4343D218BC
:10272000E260FF234422A3540132A354002D11D1AF
:102730002369002B05D101F0F1FD012070BD72B6B7
:10274000FEE72000103000F035FF0028F3D001F044
:10275000CDFDF0E720001030FFF7DBFE2000243035
:10276000FFF7D7FEE7E770B51D00049C002909D1EB
:102770002460E063216401212000FFF7BDFF4C23AA
:10278000E55470BD2260F4E770B584B01D0008AC5C
:102790002378002801D172B6FEE7002D05D0002A6B
:1027A00005D0002903D172B6FEE772B6FEE7002A13
:1027B00006D050240394039C502C05D072B6FEE73B
:1027C0000029F6D072B6FEE7462401262E55009564
:1027D000FFF7C9FF280004B070BDF0B583B0040056
:1027E0000D001600002801D172B6FEE7002914D0B2
:1027F00008006043503001F069FC071E0AD0020057
:10280000503246230021C15400903300290020009B
:10281000FFF7A9FF380003B0F0BD0800EAE710B5E4
:1028200082B00C00002801D172B6FEE7884201D2C6
:1028300072B6FEE702230093130000220021FFF787
:10284000A3FF002800D0846302B010BD10B50C00B7
:10285000002801D172B6FEE7884201D272B6FEE7C7
:1028600002220021FFF7B9FF002800D0846310BDC9
:10287000F0B585B004000F0001921D00002808D0BB
:10288000002908D0022D0BD1E36B012B08D072B6C2
:10289000FEE772B6FEE7036C002BF3D072B6FEE7DC
:1028A00000F010FF061E04D1019B002B32D072B63F
:1028B000FEE700262EE02A0039002000FFF792FEF6
:1028C000636A002B06D100280DD101F027FD0120FD
:1028D00005B0F0BD2000243000F06CFE0028F4D0DC
:1028E00001F004FDF1E701F001FDEEE701F016FD56
:1028F0000020EDE702A800F09FFE013617E000225D
:10290000E2541FE00022E25421E02000FFF7BBFE6A
:1029100000F052FD01F0F6FCA26BE36B9A42CAD3C1
:10292000022DC8D0019B002BE0D0002EE2D001F098
:10293000F5FC00F0A9FC01F0E5FC4423E25C52B296
:102940000132DCD04523E25C52B20132DAD001F030
:10295000E5FC01A902A800F07BFE002813D12000AD
:10296000FFF723FE0028D0D001992000103000F09E
:10297000F7FD2000FFF787FE00F01EFD0028C9D1FB
:1029800001F0B4FCC6E72000FFF77DFE00F014FD67
:1029900000209DE7F0B5C64600B582B004000F00E8
:1029A00001921D00002808D0002908D0022D0BD16B
:1029B000E36B012B08D072B6FEE772B6FEE7036C3C
:1029C000002BF3D072B6FEE701F0B8FC0600A26B54
:1029D000E36B9A420AD3022D08D00024300001F0A4
:1029E000B1FC200002B080BCB846F0BD4523E35CDA
:1029F0005BB298462A0039002000FFF7F3FD4346FA
:102A0000013306D0434601335BB24522A35401246F
:102A1000E4E7636A002B01D10124DFE720002430C2
:102A200000F0C8FD002806D0019A002A05D0012335
:102A300013600124D2E70124D0E70124CEE770B56A
:102A400004000D00002804D0036C002B03D072B6E4
:102A5000FEE772B6FEE70368002B13D001F06EFCB0
:102A60000600A26BE36B934222D94523E35C5BB281
:102A70000132A2635A1C0AD001335BB24522A3542F
:102A8000012416E04368002BE8D072B6FEE7636AC3
:102A9000002B01D101240CE02000243000F08AFD3D
:102AA00000280BD0002D0BD001232B60012400E067
:102AB0000024300001F046FC200070BD0124F8E73E
:102AC0000124F6E7F0B585B004000E00019200285D
:102AD0000AD000290AD000F0F5FD051E0BD1019B9C
:102AE000002B42D072B6FEE772B6FEE7036C002BF5
:102AF000F1D072B6FEE7002537E031002000FFF785
:102B0000B0FD013FA7632369002B04D101F006FC4F
:102B1000012005B0F0BD2000103000F04BFD002872
:102B2000F4D001F0E3FBF1E701F0F8FB0020F0E75F
:102B300002A800F081FD013521E044230022E25487
:102B400028E045230022E25429E02000FFF79BFD06
:102B500000F032FC09E02000FFF795FD00F02CFCAE
:102B60002000FFF731FD002835D101F0CBFBA76B2A
:102B7000002FC2D1019B002BD6D0002DD8D001F060
:102B8000CDFB00F081FB01F0BDFB4423E35C5BB2B5
:102B90000133D2D04523E35C5BB20133D1D001F0E5
:102BA000BDFB01A902A800F053FD0028D3D12000ED
:102BB000FFF70AFD0028C8D001992000243000F05A
:102BC000CFFC2000FFF75FFD00F0F6FB0028CCD122
:102BD00001F08CFBC9E700209BE770B584B0041EB0
:102BE000019104D0036C002B03D072B6FEE772B6DD
:102BF000FEE700F067FD051E04D1019B002B04D009
:102C000072B6FEE70026002549E0060047E0013BDA
:102C1000A3632368002B08D02369002B09D101F09E
:102C20007DFB0126300004B070BD00F027FE60601F
:102C3000F2E72000103000F0BDFC0028EFD001F0DA
:102C400055FBECE7002E01D072B6FEE701F066FB03
:102C5000E8E702A800F0F0FC01352AE04423002256
:102C6000E25431E045230022E25432E001F04AFB15
:102C7000606800F039FD060001F050FB39E02000EB
:102C8000FFF701FD00F098FB09E02000FFF7FBFCD7
:102C900000F092FB2000FFF797FC002838D101F0EC
:102CA00031FBA36B002BB2D1019B002BCAD0002DAE
:102CB000CFD001F033FB00F0E7FA01F023FB44230F
:102CC000E35C5BB20133C9D04523E35C5BB2013303
:102CD000C8D001F023FB01A902A800F0B9FC00282C
:102CE000D3D12000FFF770FC0028C8D02368002B48
:102CF000BCD001992000243000F032FC2000FFF706
:102D0000C2FC00F059FB0028C9D101F0EFFAC6E778
:102D1000002E01D1002685E701F0F4FA2000FFF72C
:102D20003BFC0100606800F067FD01F0F7FAF1E795
:102D3000F0B5CE4600B582B004000D000192002827
:102D400010D0002910D001F0F9FA0600A76B002F6F
:102D50000FD10024300001F0F5FA200002B080BC51
:102D6000B946F0BD72B6FEE7036C002BEBD072B62D
:102D7000FEE74423E35C5BB2994629002000FFF79D
:102D800070FC7B1EA3634B46013306D04B460133D8
:102D90005BB24422A3540124DCE72369002B01D158
:102DA0000124D7E72000103000F004FC002806D0F2
:102DB000019A002A05D0012313600124CAE70124E7
:102DC000C8E70124C6E7000010B50023072B0AD886
:102DD000054ADC00A258002A01D00133F6E7024A76
:102DE000A1501219506010BD240100200022072AB2
:102DF0000DD8074BD1005B185B68834201D00132CC
:102E0000F5E7034B0A000021D1509B185960704729
:102E10002401002010B5041E06D0FFF7E7FF46236B
:102E2000E35C002B02D010BD72B6FEE7200001F07B
:102E3000B9F9F8E770B504000D00160001F062FA68
:102E40004423E35C5BB201330DD04523E35C5BB20A
:102E500001330CD001F062FAA36B002B0BD02000E1
:102E6000FFF711FC70BD44230022E254EDE7452337
:102E70000022E254EEE7200024303200290000F066
:102E800081FBECE7084B1B681B68002B04D1074B48
:102E9000012252421A607047034B1B68DB68DB68F3
:102EA0005A68024B1A60F6E7D40100206C0100203A
:102EB000F8B5DE46574680B582460E0014009B46A4
:102EC0000A9D286B9200A52101F09FFA2F6B1E4BE3
:102ED0009C466444A4003F190722974300240F2C0A
:102EE00007D8325D2B1934331A70002A01D001340F
:102EF000F5E743230022EA54089B372B01D93723F7
:102F00000893089BEB62EB6400242C65281DFFF7F7
:102F10000BFB28001830FFF707FB2D613823089AB8
:102F20009B1AAB616D626C655823EC545A4651464E
:102F3000380001F0A9F92860099B002B00D01D6022
:102F4000C0BCBB46B246F8BDFFFFFF3F70B50024D2
:102F500007E0A3001B1998000E4BC018FFF7D9FA21
:102F60000134372CF5D90C4D2800FFF7D2FA0B4C61
:102F70002000FFF7CEFA0A48FFF7CBFA0948FFF71F
:102F8000C8FA0948FFF7C5FA084B1D60084B1C60DA
:102F900070BDC04600020020EC010020D8010020D6
:102FA000BC010020A801002090010020D4010020D5
:102FB000D001002010B5040001F0A4F9204A1368E4
:102FC000013313601F4B1B68002B0CD01E4B1B687A
:102FD000002B0DD11B4B1B68DA6AE36A9A4207D8B3
:102FE000184B1C6004E0174B1C601368012B20D0A9
:102FF000164A1368013313606364E26A144B1B685A
:103000009A4201D9124B1A60211D93009B189B0014
:1030100010481818FFF78BFA01F080F90A4B1B686B
:10302000002B05D0074B1B68DA6AE36A9A4203D388
:1030300010BDFFF78BFFDBE701F058F9F8E7C0465A
:103040008C0100206006002080010020700100201B
:10305000840100200002002010B504005923C35C45
:10306000002B05D0012B0AD0022B07D072B6FEE749
:10307000006B01F097F8200001F094F810BD01F00A
:1030800091F8FBE710B514E001F03CF90B4BDB685D
:10309000DC68201DFFF76DFA094A1368013B1360D5
:1030A000084A1368013B136001F038F92000FFF76C
:1030B000D3FF044B1B68002BE6D110BDA8010020F4
:1030C0008C010020A401002010B5FFF7DBFF034BAB
:1030D0001B68012BF9D901F009F9F6E7000200207D
:1030E00070B504000D00174B1E68174B18680430AC
:1030F000FFF73FFA631C0DD03419134B1B685C605B
:10310000A64210D9114B18680F4B19680431FFF70C
:1031100019FA70BD002DEFD00B4B196804310C4823
:10312000FFF705FAF5E70B4B1868074B19680431F0
:10313000FFF708FA084B1B68A342EAD9064B1C604C
:10314000E7E7C0468801002060060020D00100208B
:1031500090010020D40100206C01002070B586B0E1
:103160000B9C002C09D00C9C002C08D05C240494EF
:10317000049C5C2C05D072B6FEE772B6FEE772B610
:10318000FEE70C9C0B9D2563592402250C9E3555AA
:1031900000240394029605AC01940A9C0094FFF766
:1031A00087FE0C98FFF706FF059806B070BDF0B5D6
:1031B00087B00490059116001F00900000F086FF74
:1031C000041E1FD05C2000F081FF051E14D0046394
:1031D000002359228354039302900D9B01930C9B6F
:1031E00000933B00320005990498FFF761FE280028
:1031F000FFF7E0FE012007E0200000F0D3FF0120F0
:10320000404201E00120404207B0F0BD10B588B057
:1032100000240594069407AA06A905A800F0E2FE7A
:10322000079A13491348059B0293069B0193009448
:103230000023FFF793FF104B1860002811D000F017
:1032400097FB01280ED172B60C4B012252421A6034
:103250000B4B02321A600B4B00221A6001F028F867
:1032600002E00020013001D008B010BD72B6FEE7C8
:1032700020470008C9300008680100206C010020C8
:103280008001002088010020024A13680133136086
:103290007047C04664010020014B18687047C04663
:1032A00088010020F8B5394B1B68002B61D1384BE1
:1032B0001D6801351D60002D12D1364B1B681B683F
:1032C000002B01D072B6FEE7324A1168324B186803
:1032D00010601960314A136801331360FFF7D2FDA3
:1032E0002F4B1B68AB423AD900272E4B1B68D96A7B
:1032F0002D4A8B005B1899008B58012B3ED9012772
:103300003CE00127234B1B681B68002B29D0214B75
:103310001B68DB68DC6863689D4227D3261D30008C
:10332000FFF727F9A36A002B03D020001830FFF71E
:1033300020F9E26A1D4B1B689A4201D91B4B1A60A7
:1033400093009B189800184BC0183100FFF7EFF856
:10335000E26A144B1B68DB6A9A42D2D2D2E700279A
:10336000D0E70F4B012252421A60BEE70C4A1360AD
:10337000BBE70F4A13680133136000270D4B1B682E
:10338000002B00D001273800F8BDC04664010020A2
:1033900088010020D4010020D00100207401002009
:1033A0006C01002060060020000200208401002043
:1033B0007C0100207801002070B5314B1B68002B88
:1033C00001D172B6FEE700F09DFF2D4B1A68013A5D
:1033D0001A601B68002B4DD12A4B1B68002B01D1B2
:1033E000002448E00024284B1B68002B23D0264BE8
:1033F000DB68DC6820001830FFF7BBF8251D2800CB
:10340000FFF7B7F8E36A214A1268934201D91F4ACD
:1034100013609800C01880001D4BC0182900FFF7EA
:1034200086F8E26A1B4B1B68DB6A9A42DBD31A4BB5
:1034300001221A60D7E7002C01D0FFF723FD174BBC
:103440001C68002C0AD1144B1C68002C13D000F00F
:103450004DFF01240FE0013C002C07D0FFF722FFB5
:103460000028F8D00C4B01221A60F4E70B4B002225
:103470001A60E8E7002400F051FF200070BDC0464C
:10348000640100208C010020BC0100208401002088
:103490000002002060060020780100207C0100204E
:1034A00010B5041E0FD0094B1B68002B01D072B65B
:1034B000FEE7FFF7E9FE00212000FFF711FEFFF70E
:1034C0007BFF002801D100F011FF10BD6401002036
:1034D00010B51E4B1B68002B03D01D4B01221A6038
:1034E00010BD1B4B00221A601A4B1B681A499A0028
:1034F000D21890004258002A05D1002B01D0013B80
:10350000F4E772B6FEE708009900CC18A200821812
:10351000546864685460C9188A00083212189442CA
:103520000BD00D4A9900C918880012185268D1684A
:103530000A4A1160074A1360D2E7646802009900E2
:10354000C918880012185460EBE7C04664010020D7
:103550007801002084010020000200206006002085
:1035600010B50C00002809D0054B19681831FEF77A
:10357000E9FF01212000FFF7B3FD10BD72B6FEE7A1
:103580006006002070B50D00140000280DD0084B17
:1035900019681831FEF7CBFF002C01D001256D42D0
:1035A00021002800FFF79CFD70BD72B6FEE7C04603
:1035B0006006002070B5C368DC68002C26D02500AA
:1035C00018352800FEF7D5FF154B1B68002B1FD1BF
:1035D000251D2800FEF7CDFFE36A124A12689342C8
:1035E00001D9104A13609800C01880000E4BC01813
:1035F0002900FEF79CFFE26A0C4B1B68DB6A9A42CB
:103600000BD90B4B01221A60012070BD72B6FEE788
:1036100008482900FEF78BFFEDE70020F5E7C046DC
:1036200064010020840100200002002060060020C8
:1036300078010020BC010020034B1B680360034B92
:103640001B6843607047C046740100208801002059
:10365000F8B504000D00002817D0002917D000F09D
:1036600051FE134B19686368C81A2A68561C18D093
:103670002768104E3668B74201D08B4216D9824275
:1036800007D800232B6001240CE072B6FEE772B667
:10369000FEE75B1A9B182B602000FFF7CDFF00248C
:1036A00000E0002400F03AFE2000F8BD0124F9E714
:1036B0008801002074010020014B01221A6070472C
:1036C00078010020064B1B68002B07D0054B1B68B8
:1036D000002B01D0002002E0022000E00120704712
:1036E000800100206401002070B5041E3DD0C26A34
:1036F000204B1B68DB6A9A422FD28369002B05DBC3
:103700001C4B1B68D96A38235B1A8361616993007B
:103710009B189B00184A9B18994205D0154B1B68B3
:10372000DB6AE362012021E0251D2800FEF721FF6E
:10373000104B1B68DB6AE362104A1268934209D897
:103740009800C01880000C4BC0182900FEF7EFFE4F
:1037500001200BE0094A1360F2E7C26C054B1B68BD
:10376000DB6A9A4203D3002000E0002070BD0120F4
:10377000FCE7C04660060020000200208401002013
:1037800070B5041E2DD0194B1B68834201D072B650
:10379000FEE7036D002B01D172B6FEE7013B036526
:1037A000C16AC26C91421ED0002B01D0002019E0EA
:1037B000051D2800FEF7DDFEE36CE3623822D21A15
:1037C000A2610B4A1268934201D9094A136098001A
:1037D000C0188000074BC0182900FEF7A8FE012082
:1037E00000E0002070BD0020FCE7C046600600201D
:1037F000840100200002002070B5041E0DD0036D6E
:10380000002B01D172B6FEE7C26C8A4200D20A00D8
:10381000E16A914201D0012B00D070BD144B1B68AE
:10382000A34222D0E262A369002B02DB38239B1A59
:10383000A36162698B005B189B000E495B189A427A
:10384000EBD1251D2800FEF794FEE36A0A4A1268B0
:10385000934201D9084A13609800C0188000054BB4
:10386000C0182900FEF763FED7E772B6FEE7C04630
:10387000600600200002002084010020054B1B6828
:10388000002B04D0034B1A68136D01331365014BF1
:103890001868704760060020064B1A681368594282
:1038A0004B410360002B02D1D36818687047002099
:1038B000FCE7C0466407002010B5416000619142FA
:1038C0000CD8D21A83699A4201D3012010BD011D80
:1038D000094B1868FEF736FE0020F7E79A4201D23E
:1038E000994206D2011D054B1868FEF72BFE0020F9
:1038F000ECE70120EAE7C0466007002064070020EB
:1039000030B583B000F0FEFC114B1B68002B03D0D8
:1039100000F004FD03B030BD0E4D2800FEF7F9FDA8
:103920000D4C2000FEF7F5FD0C4B1D600C4B1C6090
:103930000C4B0D4A0021009110310A20FEF724FFA4
:10394000034B18600028E3D00849FFF73DFADFE792
:103950005C0700207C070020680700206407002027
:103960006007002064060020B406002028470008F5
:1039700000B589B0FFF7C4FF104B1B68002B1AD0AD
:1039800000230593069307AA06A905A800F036FBB5
:10399000079A0B490B48059B0293069B0193022350
:1039A00000930023FFF7DAFB074B1860002802D0D2
:1039B000012009B000BD72B6FEE7C0465C070020DA
:1039C000304700083D3C00085807002030B585B05E
:1039D0001C00002814D0144B1D68002D22D000912B
:1039E00001920290052915DCFFF76CFE022809D030
:1039F0000D4B1868002300226946FEF739FF0FE0DF
:103A000072B6FEE7084B18680023089A6946FEF76D
:103A10002FFF05E00023220069462800FEF7BAFFC9
:103A200005B030BD0020FBE75C07002070B582B018
:103A3000174B1B681A68002A23D0DB681E68DC68F5
:103A4000251D2800FEF795FD636A20009847E3696D
:103A5000012BEDD1A3699B199E4207D263602461BB
:103A60000B4B18682900FEF76DFDE1E7002300937A
:103A7000320000212000FFF7A9FF0028D8D172B63C
:103A8000FEE7034A0349086810600B6002B070BD8E
:103A9000640700206007002070B50500FFF7FCFBFD
:103AA0000400074B1B68834205D800232B60044B9E
:103AB0001C60200070BDFFF7B9FF01232B60F6E703
:103AC0005407002070B582B005000E00114B1B6832
:103AD000DB68DC68201DFEF74CFDE369012B04D098
:103AE000636A2000984702B070BDA16949192B0094
:103AF00032002000FFF7E0FE0028F1D00023009301
:103B00002A0000212000FFF761FF0028E8D172B6EB
:103B1000FEE7C0466407002070B582B005000C00C7
:103B2000FFF7B2FB01A8FFF7B7FF0600019B002BD0
:103B30001FD1002C08D1A8420CD3FFF73DFC310067
:103B40002800FFF7BFFF0FE00B4B1B681C686342A8
:103B50005C41E4B2A91B094B18682200FFF76AF91F
:103B6000FFF72AFC002801D002B070BD00F0BEFBB8
:103B7000FAE7FFF721FCF7E7600700205C07002069
:103B800010B588B002E0049B002B0FDA294B1868AF
:103B9000002204A9FEF796FF002848D0049B002BC2
:103BA000F1DA059B069807999847ECE7069C63694C
:103BB000002B02D0201DFEF7DCFC03A8FFF76CFFF2
:103BC000020004990929E1D889001B4B5B589F46E4
:103BD000059BA16959182000FFF76EFE0028D5D07B
:103BE000636A20009847E369012BCFD1059AA36946
:103BF000D2180023009300212000FFF7E7FE0028E1
:103C0000C4D172B6FEE70599A161002905D0091853
:103C100003002000FFF750FEB8E772B6FEE72C2342
:103C2000E35C002BB2D1200000F0BCFAAEE708B094
:103C300010BDC0465C0700200048000800B583B0F6
:103C400001A8FFF729FE0199FFF766FFFFF798FF2C
:103C5000F6E70000EFF30583002B0ED1EFF310839E
:103C6000002B03D0094B1B68022B09D0074B1868A7
:103C7000002808D101221A60704706204042FBE765
:103C800006204042F8E701204042F5E7480E0020B8
:103C900010B5EFF30583002B12D1EFF31083002B47
:103CA00003D00C4B1B68022B0DD00A4B1B68012B59
:103CB0000CD1084B02221A60FFF7A8FA002010BDB1
:103CC00006204042FBE706204042F8E70120404240
:103CD000F5E7C046480E0020F0B5C64600B586B0F0
:103CE00000240494EFF30584002C49D1EFF31083F2
:103CF000002B03D0374B1B68022B41D000283FD04C
:103D000017236B4400241C70002A2FD01568002D47
:103D10001ED09369002B00D118335C1E372C55D868
:103D20005468E40754D45769002F13D0BC08A04648
:103D30009468002C07D0D6685B2E04D91669002E33
:103D400001D0002F21D1002C07D00124644213E0C0
:103D50001D00DEE78024A046EAE7D468002C16D1D7
:103D60001469002C16D00124644205E000241823B5
:103D70008025A846693D6D44012C0DD0002C17D03C
:103D8000049806B080BCB846F0BD0124F4E70124D5
:103D90006442F1E70024EFE714699268029201940B
:103DA00000930B0042462900FFF7D8F90490E7E79B
:103DB000424692B204AC019400930B002900FFF735
:103DC000F6F90128DCD000230493D9E70020D8E7D6
:103DD0000020D6E7480E002010B5EFF30583002B36
:103DE0000FD1EFF31083002B03D0094B1B68022B7C
:103DF0000AD0002801D1002010BDFFF751FB0020A0
:103E0000FAE706204042F7E706204042F4E7C046C2
:103E1000480E002070B582B00D001400EFF305834A
:103E2000002B56D1EFF31083002B03D02F4B1B68D0
:103E3000022B52D0002852D0A84252D3002C0BD0D3
:103E4000A668002E02D0E3684F2B18D8002E4AD166
:103E5000E368002B01D03DE00023012811D0012BA5
:103E600031D02900FEF7F2FC0600002E32D0002CE3
:103E700000D0246821003000FEF7A6FF2AE00123CD
:103E8000EBE7012B16D0032200210120FEF7A5FC51
:103E90000600002E1ED0002DE7D0002300220021B6
:103EA0003000FEF7E5FC0128DFD03000FEF7B2FF5E
:103EB00000260FE0A3680322009200220021FEF7F3
:103EC00063FC0600E5E7A2682900FEF7A8FC0600EF
:103ED000CBE70026300002B070BD0026FAE70026CE
:103EE000F8E70026F6E70026F4E7C046480E002073
:103EF00010B582B00C00002829D0EFF30583002B09
:103F000011D1EFF31083002B03D0184B1B68022B49
:103F100009D02100FEF761FE012821D0002C21D01C
:103F20000220404211E0002C14D10023019301AA89
:103F30000021FEF7FDFE01280FD10198002804D0D2
:103F40000B4B802252051A60002002B010BD0420E5
:103F50004042FAE704204042F7E703204042F4E7FA
:103F60000020F2E703204042EFE7C046480E002061
:103F700004ED00E000B583B0002825D0EFF3058301
:103F8000002B11D1EFF31083002B03D0134B1B68D0
:103F9000022B09D0002300220021FEF769FC012832
:103FA00018D1002003B000BD0023019301A9FEF742
:103FB00046FD01280BD101980028F3D0084B802240
:103FC00052051A600020EDE704204042EAE7032092
:103FD0004042E7E703204042E4E7C046480E0020A5
:103FE00004ED00E0034B0360034B0B608023136080
:103FF0007047C046EC0D0020EC0B0020034B036023
:10400000034B0B6080235B0013607047900B002014
:1040100090070020124A53071FD0D11D0723994350
:10402000C0231B015B1A9B180A000E480260002186
:104030004160D318083B072083430B480360596055
:104040001960991A51601360084B1960084B196088
:10405000084B802212061A607047C0231B01E4E758
:10406000640E00205C0E0020580E0020500E002030
:10407000540E00204C0E002010B5124B1A001B6885
:104080008342FBD351685418844208D041684418D5
:10409000A34209D00360904200D0106010BD406878
:1040A000091851601000F1E7074C2468A34206D0BC
:1040B0005B68C918416013681B680360EBE7046024
:1040C000E9E7C0465C0E0020580E002070B50400E1
:1040D000FFF7DAF82E4B1B68002B15D02D4B1B6811
:1040E000234243D1002C43D022000832640702D07F
:1040F00007239A430832002A41D0274B1B6893427A
:104100003FD326490C6804E0FFF784FFE6E721006F
:104110001C006368934202D22368002BF7D11C4B2A
:104120001B68A3422FD00D68083523680B606368B5
:104130009B1A102B08D9A018410701D072B6FEE7D0
:1041400043606260FFF798FF626813490B689B1A2F
:104150000B60134909688B4201D211490B600D4B6A
:104160001B68134363600023236002E0002500E026
:104170000025FFF721F96B0707D072B6FEE700258F
:10418000F7E70025F5E70025F3E7280070BDC046F6
:10419000580E00204C0E0020540E00205C0E002013
:1041A000500E002070B500281FD00500083D6B6838
:1041B0000E4A12681A4201D172B6FEE701000839B0
:1041C0000968002901D072B6FEE70838040093435D
:1041D0004360FFF759F86168054A13685B1813607C
:1041E0002800FFF749FFFFF7E7F870BD4C0E0020ED
:1041F000540E002082B000230193064B1B6801334C
:1042000001D072B6FEE772B6019B002BFCD002B063
:104210007047C0460C0000200000000000000000B5
:104220000B4A13681868203080F30988022080F355
:104230001488BFF36F8F3FBCAE4608BC04BC62B6A7
:104240001847C046C046C046C046C046C046C046E5
:104250006006002010B5084C00232360074A136055
:10426000074B1868FA218900FBF732FF0138054B2C
:1042700018600723236010BD10E000E018E000E0A4
:104280000800002014E000E010B5031F802464043F
:104290001C60043B1960044B01000C390B600300E7
:1042A000203B1A60403810BDF541000870470000FF
:1042B00010B50C4B1968FF2212040A431A601968E2
:1042C000FF2212060A431A60FFF7C4FF064B0022C2
:1042D0001A60FFF7A5FFFFF7FBF8FFF78BFF002041
:1042E00010BDC04620ED00E00C000020044B8022F1
:1042F00052051A60BFF34F8FBFF36F8F7047C046F0
:1043000004ED00E072B6044A136801331360BFF392
:104310004F8FBFF36F8F70470C000020064B1B6858
:10432000002B01D172B6FEE7013B034A1360002B5C
:1043300000D162B67047C0460C000020EFF3108039
:1043400072B6704780F310887047000000000000CC
:10435000EFF309800E4B1A6820381060F0C0444615
:104360004D4656465F46F0C008B572B6FFF7B0F846
:1043700062B60CBC116808681030F0C8A046A946A7
:10438000B246BB4680F309882038F0C81847C046BB
:104390006006002010B5FFF7D1FF0400FEF782FF92
:1043A000002803D0034B802252051A602000FFF73B
:1043B000C9FF10BD04ED00E00D488546FEF7A8F8E2
:1043C0000C480D490D4A002302E0D458C450043370
:1043D000C4188C42F9D30A4A0A4C002301E0136046
:1043E0000432A242FBD300F035F8FCF763FCFEE791
:1043F0000040002000000020100000203449000888
:1044000010000020641A0020FEE703008218934287
:1044100000D1704719700133F9E70000F0B50022B0
:10442000040003270A4EA35CF05C3840012800D149
:104430002033885C355C3D40012D00D120301D1AB1
:10444000834203D101320028EDD1F0BD2800FCE702
:104450002948000870B500260C4C0D4D641BA410B3
:10446000A64209D1002600F023F80A4C0A4D641B2D
:10447000A410A64205D170BDB300EB589847013691
:10448000EEE7B300EB5898470136F2E72C490008F5
:104490002C490008304900082C490008002310B5B9
:1044A0009A4200D110BDCC5CC4540133F8E700003F
:1044B000F8B5C046F8BC08BC9E467047F8B5C04683
:0844C000F8BC08BC9E467047E1
:1044C8004000000000020000800000000001000021
:1044D800C00300004D6F746F7220776F726B657246
:1044E80020476F7420746865207369676E616C0A71
:1044F800000000004D6F746F7220776F726B6572E9
:1045080020676F20746F20736C6565700A00000067
:10451800526F757465723A2047657420636F756EC3
:104528007453656D30310A0057616B6520757020D2
:104538006C656420776F726B65720A0057616B65F2
:10454800207570206D6F746F7220776F726B657253
:104558000A0000004C454420776F726B6572204753
:104568006F7420746865207369676E616C0A000057
:104578004C454420776F726B657220676F20746FAB
:1045880020736C6565700A004661696C20746F2041
:10459800696E69742073796E63207265736F7572C2
:1045A800636573210A0000006D6F746F7254617344
:1045B8006B0000004C45445461736B00726F757456
:1045C80065725461736B00006C6564007265640009
:1045D800677265656E000000626C7565000000001A
:1045E8006F72616E67650000616C6C006F6E000031
:1045F8006F666600746F67676C650000626C696E51
:104608006B000000426C696E6B20737065656420F6
:104618006C696D6974656420746F203135303020A1
:104628006D7300006D6F746F7200000073706565C4
:10463800640000004D6F746F7220737065656420AC
:104648006C696D6974656420746F20313030205254
:10465800504D00005561727420706172736572204C
:104668006765742073656D3032210A005075736870
:1046780020636F6D6D616E6420746F207175657550
:104688006520737563636573732E0A0077616B65C4
:1046980020757020726F757465720A004661696CC6
:1046A80020746F207075736820636F6D6D616E6420
:1046B80020746F2071756575652C2074727920617E
:1046C8006761696E2E0A0000436F6D6D616E64202C
:1046D8006E6F74207265636F676E697A6564000037
:1046E8005541525420656E61626C6564000000009B
:1046F8000A0D436F6D6D616E6420697320746F6F6E
:10470800206C6F6E672100005541525450617273DE
:10471800655461736B00000049444C45000000007B
:10472800546D725100000000546D7220537663007E
:10473800B045000800000000000000000000000074
:104748000000000000020000180000000000000047
:1047580000000000BC450008000000000000000048
:104768000000000000000000000200001800000027
:104778000000000000000000C44500080000000020
:10478800000000000000000000000000000200001F
:10479800180000000000000000000000104700089A
:1047A8000000000000000000000000000000000001
:1047B80000020000190000000000000000000000D6
:1047C8000102030405060708090A0B0C0D0E0F1059
:1047D80002030405060708090A0B0C0D0E0F10103A
:1047E80000000000010203040000000000000000B7
:1047F8000102030406070809D03B0008D03B000863
:10480800D03B00088C3B0008063C00081E3C000812
:10481800D03B0008D03B00088C3B0008063C000851
:104828000020202020202020202028282828282078
:104838002020202020202020202020202020202070
:1048480020881010101010101010101010101010D8
:1048580010040404040404040404041010101010C8
:104868001010414141414141010101010101010192
:1048780001010101010101010101010110101010E4
:104888001010424242424242020202020202020264
:1048980002020202020202020202020210101010B8
:1048A80020000000000000000000000000000000E0
:1048B80000000000000000000000000000000000F0
:1048C80000000000000000000000000000000000E0
:1048D80000000000000000000000000000000000D0
:1048E80000000000000000000000000000000000C0
:1048F80000000000000000000000000000000000B0
:10490800000000000000000000000000000000009F
:10491800000000000000000000000000000000008F
:04492800000000008B
:04492C00310400084A
:044930000504000872
:10493400010101000400000000127A00AAAAAAAA38
:04000005080043B9F3
:00000001FF
